:1000000045C0000060C000005EC000005CC0000091
:100010005AC0000058C0000056C0000054C0000084
:1000200052C0000050C000004EC000004CC0000094
:100030004AC0000048C0000046C0000044C00000A4
:1000400042C0000040C000003EC000007CC1000073
:100050003AC0000038C0000036C0000034C00000C4
:1000600032C0000030C000002EC000002CC00000D4
:100070002AC0000028C0000026C0000024C00000E4
:1000800022C0000020C000001EC0000011241FBEBE
:10009000CFEFD0E4DEBFCDBF11E0A0E0B1E0E6EEEF
:1000A000F3E000E00BBF02C007900D92A032B10751
:1000B000D9F721E0A0E2B1E001C01D92A532B2075C
:1000C000E1F753D18EC19CCF181619065CF0089544
:1000D000000021503109E1F74F5F5F4F841795070A
:1000E00019F4089540E050E027E033E0F1CF5E9846
:1000F00088B95F9A00005F9882E090E0E5CF0895AC
:1001000081E0F5CF0895813118F48158F0CF08953A
:100110008155EDCF089584E690E0D6DF88E3E7DFF0
:1001200086E0E5DF8FE0E3DF81E0E1DF8AE090E079
:10013000CBCF08955E9A88B95F9A00005F9881E0FE
:1001400090E0C2CF08950F931F93CF93DF93182FA2
:10015000EB01D6DF8881882351F001E0010F812F68
:10016000D2DF8991E7DF102F88818111F6CFDF91EF
:10017000CF911F910F910895CF92DF92EF92FF924E
:100180000F931F93CF93DF9300D000D01F92CDB772
:10019000DEB76C01DE01119695E0FD0111929A9592
:1001A000E9F7209A289AFFEF20E782E0F1502040FB
:1001B0008040E1F700C000002898A7EEB3E0119757
:1001C000F1F700C00000289A2098BAE6BA95F1F736
:1001D00000C0189960C0E5EDEA95F1F70000189BA2
:1001E0005CC0F5EDFA95F1F700008E010F5F1F4F2F
:1001F0007E0126E0E20EF11CE1E0F0E026C0215095
:10020000310919F44CC029EC30E0189BF8CF80E597
:100210008A95F1F7189B08C09F01042E02C0220F97
:10022000331F0A94E2F7922B29EC30E003C02150EF
:100230003109B9F11899FBCF4150510920F7D80184
:100240009D938D01EA16FB0621F047E050E090E017
:10025000DACF209A289ABFEFE0E7F2E0B150E04011
:10026000F040E1F700C0000049818A815B812C8168
:10027000942F980F950F920F3D81931314C030E087
:10028000352BD6012D933C9390E0942BFB01918369
:10029000808380E009C08FEF07C08FEF05C08FEF2C
:1002A00003C08FEF01C08FEF0F900F900F900F9052
:1002B0000F90DF91CF911F910F91FF90EF90DF9002
:1002C000CF9008951F93CF93DF93EC01162F862FC5
:1002D0001ADFC436D10540F080E08F5FC456D109E3
:1002E000C436D105D0F701C080E0805D23DF81E016
:1002F000810F09DFCA30D10538F080E08F5F2A977F
:10030000CA30D105D8F701C080E0805D13DF82E0FC
:10031000810FF9DE8EE20EDF83E0810FF4DE8C2F99
:10032000805D08DF80E0EFDEDF91CF911F910895BF
:100330008FE484B980EB85B98CB5806C8CBD8FB7A8
:1003400080688FBF08951F920F920FB60F921124ED
:100350008F930DB407FEFDCF8EB5809324018F914E
:100360000F900FBE0F901F9018958FEF87B918B898
:100370008AB91BB881B912B8CEDEC2DE60E071E086
:1003800081E0E1DED5DF2FEF89E698E12150804062
:100390009040E1F700C000008091240182B960E242
:1003A00071E082E291E0E8DE8F3F69F067E08091E2
:1003B00022019091230186DF65E1809120019091D7
:1003C000210180DF04C06AE171E081E0BCDE2FEF33
:1003D0008EE994E2215080409040E1F700C0000097
:0603E000DBCFF894FFCF13
:1003E60054656D703A2020202E20432020202020A6
:1003F60052683A2020202E2025004572726F720026
:00000001FF
